{
  "transactions": [
    {
      "hash": "0x8136c180fd9a946afdfb531271c8f6927e550136e8733672986c1a9edf2435b8",
      "transactionType": "CREATE",
      "contractName": "Wallet",
      "contractAddress": "0xB416da5BA563D1207870c4A71ab7F45059D5DaBE",
      "function": null,
      "arguments": [
        "0",
        "500"
      ],
      "transaction": {
        "type": "0x02",
        "from": "0x37661190318d938e46900d766ee45025105ea583",
        "gas": "0x794e3",
        "value": "0x0",
        "data": "0x608060405234801561000f575f80fd5b5060405161058e38038061058e83398101604081905261002e9161004d565b5f80546001600160a01b0319163317905560019190915560025561006f565b5f806040838503121561005e575f80fd5b505080516020909101519092909150565b6105128061007c5f395ff3fe608060405260043610610049575f3560e01c80632e1a7d4d1461004d57806370a082311461006e578063a6f9dae1146100b4578063ebe8995e146100d3578063f340fa01146100f2575b5f80fd5b348015610058575f80fd5b5061006c610067366004610438565b610105565b005b348015610079575f80fd5b506100a261008836600461044f565b6001600160a01b03165f9081526003602052604090205490565b60405190815260200160405180910390f35b3480156100bf575f80fd5b5061006c6100ce36600461044f565b61026a565b3480156100de575f80fd5b5061006c6100ed36600461047c565b61031d565b61006c61010036600461044f565b610375565b335f9081526003602052604090205481111561015d5760405162461bcd60e51b81526020600482015260126024820152714e4f5420454e4f5547482042414c414e434560701b60448201526064015b60405180910390fd5b804710156101ad5760405162461bcd60e51b815260206004820152601960248201527f4e4f5420454e4f5547482057414c4c45542042414c414e4345000000000000006044820152606401610154565b60405133905f90829084908381818185875af1925050503d805f81146101ee576040519150601f19603f3d011682016040523d82523d5f602084013e6101f3565b606091505b50509050806102395760405162461bcd60e51b81526020600482015260126024820152711514905394d050d51253d38811905253115160721b6044820152606401610154565b6001600160a01b0382165f90815260036020526040812080548592906102609084906104b0565b9091555050505050565b5f546001600160a01b031633146102b75760405162461bcd60e51b81526020600482015260116024820152702ca7aa9020a922902727aa1027aba722a960791b6044820152606401610154565b6001600160a01b0381166102fc5760405162461bcd60e51b815260206004820152600c60248201526b5a45524f204144445245535360a01b6044820152606401610154565b5f80546001600160a01b0319166001600160a01b0392909216919091179055565b5f546001600160a01b0316331461036a5760405162461bcd60e51b81526020600482015260116024820152702ca7aa9020a922902727aa1027aba722a960791b6044820152606401610154565b600191909155600255565b6001600160a01b0381166103ba5760405162461bcd60e51b815260206004820152600c60248201526b5a45524f204144445245535360a01b6044820152606401610154565b60015434101580156103ce57506002543411155b6104095760405162461bcd60e51b815260206004820152600c60248201526b4f5554204f462052414e474560a01b6044820152606401610154565b6001600160a01b0381165f90815260036020526040812080543492906104309084906104c9565b909155505050565b5f60208284031215610448575f80fd5b5035919050565b5f6020828403121561045f575f80fd5b81356001600160a01b0381168114610475575f80fd5b9392505050565b5f806040838503121561048d575f80fd5b50508035926020909101359150565b634e487b7160e01b5f52601160045260245ffd5b818103818111156104c3576104c361049c565b92915050565b808201808211156104c3576104c361049c56fea2646970667358221220ebdb8db12df62d646bf20d4922ce9662dfcce65fe0d47183015ce3da4aa0a3d764736f6c63430008170033000000000000000000000000000000000000000000000000000000000000000000000000000000000000000000000000000000000000000000000000000001f4",
        "nonce": "0x4",
        "accessList": []
      },
      "additionalContracts": [],
      "isFixedGasLimit": false
    },
    {
      "hash": "0x0060a2c84de518a8570c84f85fd9064b5f78f6bf650481bb04f993dad9432dac",
      "transactionType": "CALL",
      "contractName": "Wallet",
      "contractAddress": "0xB416da5BA563D1207870c4A71ab7F45059D5DaBE",
      "function": "deposit(address)",
      "arguments": [
        "0x37661190318D938e46900D766ee45025105EA583"
      ],
      "transaction": {
        "type": "0x02",
        "from": "0x37661190318d938e46900d766ee45025105ea583",
        "to": "0xb416da5ba563d1207870c4a71ab7f45059d5dabe",
        "gas": "0x1140e",
        "value": "0x32",
        "data": "0xf340fa0100000000000000000000000037661190318d938e46900d766ee45025105ea583",
        "nonce": "0x5",
        "accessList": []
      },
      "additionalContracts": [],
      "isFixedGasLimit": false
    }
  ],
  "receipts": [
    {
      "transactionHash": "0x8136c180fd9a946afdfb531271c8f6927e550136e8733672986c1a9edf2435b8",
      "transactionIndex": "0x35",
      "blockHash": "0x345be3e70fe29e0dc18a51be6affcb616b59155373f2ee129b78aad6a756fe08",
      "blockNumber": "0x51b253",
      "from": "0x37661190318D938e46900D766ee45025105EA583",
      "to": null,
      "cumulativeGasUsed": "0x417dc8",
      "gasUsed": "0x5d4fe",
      "contractAddress": "0xB416da5BA563D1207870c4A71ab7F45059D5DaBE",
      "logs": [],
      "status": "0x1",
      "logsBloom": "0x00000000000000000000000000000000000000000000000000000000000000000000000000000000000000000000000000000000000000000000000000000000000000000000000000000000000000000000000000000000000000000000000000000000000000000000000000000000000000000000000000000000000000000000000000000000000000000000000000000000000000000000000000000000000000000000000000000000000000000000000000000000000000000000000000000000000000000000000000000000000000000000000000000000000000000000000000000000000000000000000000000000000000000000000000000000",
      "type": "0x2",
      "effectiveGasPrice": "0x2303ee447"
    },
    {
      "transactionHash": "0x0060a2c84de518a8570c84f85fd9064b5f78f6bf650481bb04f993dad9432dac",
      "transactionIndex": "0x36",
      "blockHash": "0x345be3e70fe29e0dc18a51be6affcb616b59155373f2ee129b78aad6a756fe08",
      "blockNumber": "0x51b253",
      "from": "0x37661190318D938e46900D766ee45025105EA583",
      "to": "0xB416da5BA563D1207870c4A71ab7F45059D5DaBE",
      "cumulativeGasUsed": "0x423a8a",
      "gasUsed": "0xbcc2",
      "contractAddress": null,
      "logs": [],
      "status": "0x1",
      "logsBloom": "0x00000000000000000000000000000000000000000000000000000000000000000000000000000000000000000000000000000000000000000000000000000000000000000000000000000000000000000000000000000000000000000000000000000000000000000000000000000000000000000000000000000000000000000000000000000000000000000000000000000000000000000000000000000000000000000000000000000000000000000000000000000000000000000000000000000000000000000000000000000000000000000000000000000000000000000000000000000000000000000000000000000000000000000000000000000000",
      "type": "0x2",
      "effectiveGasPrice": "0x2303ee447"
    }
  ],
  "libraries": [],
  "pending": [],
  "returns": {},
  "timestamp": 1708782880,
  "chain": 11155111,
  "multi": false,
  "commit": "66c216a"
}